{
  "_format": "hh-sol-artifact-1",
  "contractName": "P2PComputeMarket",
  "sourceName": "contracts/P2PComputeMarket.sol",
  "abi": [
    {
      "anonymous": false,
      "inputs": [
        {
          "indexed": true,
          "internalType": "bytes32",
          "name": "jobId",
          "type": "bytes32"
        },
        {
          "indexed": false,
          "internalType": "string",
          "name": "finalStatus",
          "type": "string"
        }
      ],
      "name": "JobCompleted",
      "type": "event"
    },
    {
      "anonymous": false,
      "inputs": [
        {
          "indexed": true,
          "internalType": "bytes32",
          "name": "jobId",
          "type": "bytes32"
        },
        {
          "indexed": true,
          "internalType": "address",
          "name": "provider",
          "type": "address"
        }
      ],
      "name": "ResourceRequested",
      "type": "event"
    },
    {
      "inputs": [
        {
          "internalType": "bytes32",
          "name": "_jobId",
          "type": "bytes32"
        },
        {
          "internalType": "bool",
          "name": "_wasSuccessful",
          "type": "bool"
        }
      ],
      "name": "finalizeJob",
      "outputs": [],
      "stateMutability": "nonpayable",
      "type": "function"
    },
    {
      "inputs": [
        {
          "internalType": "bytes32",
          "name": "",
          "type": "bytes32"
        }
      ],
      "name": "jobs",
      "outputs": [
        {
          "internalType": "bytes32",
          "name": "jobId",
          "type": "bytes32"
        },
        {
          "internalType": "address",
          "name": "requester",
          "type": "address"
        },
        {
          "internalType": "address",
          "name": "provider",
          "type": "address"
        },
        {
          "internalType": "string",
          "name": "status",
          "type": "string"
        }
      ],
      "stateMutability": "view",
      "type": "function"
    },
    {
      "inputs": [
        {
          "internalType": "address",
          "name": "_provider",
          "type": "address"
        }
      ],
      "name": "requestComputation",
      "outputs": [],
      "stateMutability": "nonpayable",
      "type": "function"
    }
  ],
  "bytecode": "0x6080604052348015600f57600080fd5b50610c3f8061001f6000396000f3fe608060405234801561001057600080fd5b50600436106100415760003560e01c8063088c49d61461004657806338ed7cfc146100625780635769e89a14610095575b600080fd5b610060600480360381019061005b9190610559565b6100b1565b005b61007c60048036038101906100779190610599565b610234565b60405161008c94939291906106a6565b60405180910390f35b6100af60048036038101906100aa919061071e565b61032c565b005b60008060008481526020019081526020016000209050600073ffffffffffffffffffffffffffffffffffffffff168160010160009054906101000a900473ffffffffffffffffffffffffffffffffffffffff1673ffffffffffffffffffffffffffffffffffffffff160361015a576040517f08c379a000000000000000000000000000000000000000000000000000000000815260040161015190610797565b60405180910390fd5b81156101ac576040518060400160405280600981526020017f434f4d504c4554454400000000000000000000000000000000000000000000008152508160030190816101a691906109fc565b506101f4565b6040518060400160405280600681526020017f4641494c454400000000000000000000000000000000000000000000000000008152508160030190816101f291906109fc565b505b827f97f266931c4fd3c85607f6d4e6f9d2333b4c8848d48ec4caa798286134eb5d05826003016040516102279190610b52565b60405180910390a2505050565b60006020528060005260406000206000915090508060000154908060010160009054906101000a900473ffffffffffffffffffffffffffffffffffffffff16908060020160009054906101000a900473ffffffffffffffffffffffffffffffffffffffff16908060030180546102a990610815565b80601f01602080910402602001604051908101604052809291908181526020018280546102d590610815565b80156103225780601f106102f757610100808354040283529160200191610322565b820191906000526020600020905b81548152906001019060200180831161030557829003601f168201915b5050505050905084565b60003342604051602001610341929190610bdd565b60405160208183030381529060405280519060200120905060405180608001604052808281526020013373ffffffffffffffffffffffffffffffffffffffff1681526020018373ffffffffffffffffffffffffffffffffffffffff1681526020016040518060400160405280600981526020017f52455155455354454400000000000000000000000000000000000000000000008152508152506000808381526020019081526020016000206000820151816000015560208201518160010160006101000a81548173ffffffffffffffffffffffffffffffffffffffff021916908373ffffffffffffffffffffffffffffffffffffffff16021790555060408201518160020160006101000a81548173ffffffffffffffffffffffffffffffffffffffff021916908373ffffffffffffffffffffffffffffffffffffffff160217905550606082015181600301908161049a91906109fc565b509050508173ffffffffffffffffffffffffffffffffffffffff16817f5f3891818d945622b6576700292d806431e448915495be1dad8e6871dc5949c260405160405180910390a35050565b600080fd5b6000819050919050565b6104fe816104eb565b811461050957600080fd5b50565b60008135905061051b816104f5565b92915050565b60008115159050919050565b61053681610521565b811461054157600080fd5b50565b6000813590506105538161052d565b92915050565b600080604083850312156105705761056f6104e6565b5b600061057e8582860161050c565b925050602061058f85828601610544565b9150509250929050565b6000602082840312156105af576105ae6104e6565b5b60006105bd8482850161050c565b91505092915050565b6105cf816104eb565b82525050565b600073ffffffffffffffffffffffffffffffffffffffff82169050919050565b6000610600826105d5565b9050919050565b610610816105f5565b82525050565b600081519050919050565b600082825260208201905092915050565b60005b83811015610650578082015181840152602081019050610635565b60008484015250505050565b6000601f19601f8301169050919050565b600061067882610616565b6106828185610621565b9350610692818560208601610632565b61069b8161065c565b840191505092915050565b60006080820190506106bb60008301876105c6565b6106c86020830186610607565b6106d56040830185610607565b81810360608301526106e7818461066d565b905095945050505050565b6106fb816105f5565b811461070657600080fd5b50565b600081359050610718816106f2565b92915050565b600060208284031215610734576107336104e6565b5b600061074284828501610709565b91505092915050565b7f4a6f6220646f6573206e6f742065786973742e00000000000000000000000000600082015250565b6000610781601383610621565b915061078c8261074b565b602082019050919050565b600060208201905081810360008301526107b081610774565b9050919050565b7f4e487b7100000000000000000000000000000000000000000000000000000000600052604160045260246000fd5b7f4e487b7100000000000000000000000000000000000000000000000000000000600052602260045260246000fd5b6000600282049050600182168061082d57607f821691505b6020821081036108405761083f6107e6565b5b50919050565b60008190508160005260206000209050919050565b60006020601f8301049050919050565b600082821b905092915050565b6000600883026108a87fffffffffffffffffffffffffffffffffffffffffffffffffffffffffffffffff8261086b565b6108b2868361086b565b95508019841693508086168417925050509392505050565b6000819050919050565b6000819050919050565b60006108f96108f46108ef846108ca565b6108d4565b6108ca565b9050919050565b6000819050919050565b610913836108de565b61092761091f82610900565b848454610878565b825550505050565b600090565b61093c61092f565b61094781848461090a565b505050565b5b8181101561096b57610960600082610934565b60018101905061094d565b5050565b601f8211156109b05761098181610846565b61098a8461085b565b81016020851015610999578190505b6109ad6109a58561085b565b83018261094c565b50505b505050565b600082821c905092915050565b60006109d3600019846008026109b5565b1980831691505092915050565b60006109ec83836109c2565b9150826002028217905092915050565b610a0582610616565b67ffffffffffffffff811115610a1e57610a1d6107b7565b5b610a288254610815565b610a3382828561096f565b600060209050601f831160018114610a665760008415610a54578287015190505b610a5e85826109e0565b865550610ac6565b601f198416610a7486610846565b60005b82811015610a9c57848901518255600182019150602085019450602081019050610a77565b86831015610ab95784890151610ab5601f8916826109c2565b8355505b6001600288020188555050505b505050505050565b60008154610adb81610815565b610ae58186610621565b94506001821660008114610b005760018114610b1657610b49565b60ff198316865281151560200286019350610b49565b610b1f85610846565b60005b83811015610b4157815481890152600182019150602081019050610b22565b808801955050505b50505092915050565b60006020820190508181036000830152610b6c8184610ace565b905092915050565b60008160601b9050919050565b6000610b8c82610b74565b9050919050565b6000610b9e82610b81565b9050919050565b610bb6610bb1826105f5565b610b93565b82525050565b6000819050919050565b610bd7610bd2826108ca565b610bbc565b82525050565b6000610be98285610ba5565b601482019150610bf98284610bc6565b602082019150819050939250505056fea26469706673582212203cfe77d8154c69ae63ed9eb726041bb125d7dd929e666662ace0c154340c625964736f6c634300081c0033",
  "linkReferences": {},
  "deployedLinkReferences": {}
}