{
  "_format": "hh-sol-artifact-1",
  "contractName": "NodeRegistry",
  "sourceName": "contracts/NodeRegistry.sol",
  "abi": [
    {
      "inputs": [],
      "name": "getNodeList",
      "outputs": [
        {
          "internalType": "address[]",
          "name": "",
          "type": "address[]"
        }
      ],
      "stateMutability": "view",
      "type": "function"
    },
    {
      "inputs": [
        {
          "internalType": "uint256",
          "name": "",
          "type": "uint256"
        }
      ],
      "name": "nodeList",
      "outputs": [
        {
          "internalType": "address",
          "name": "",
          "type": "address"
        }
      ],
      "stateMutability": "view",
      "type": "function"
    },
    {
      "inputs": [
        {
          "internalType": "address",
          "name": "",
          "type": "address"
        }
      ],
      "name": "nodes",
      "outputs": [
        {
          "internalType": "address",
          "name": "owner",
          "type": "address"
        },
        {
          "internalType": "string",
          "name": "location",
          "type": "string"
        },
        {
          "internalType": "uint256",
          "name": "cpuUnits",
          "type": "uint256"
        },
        {
          "internalType": "uint256",
          "name": "ramMb",
          "type": "uint256"
        },
        {
          "internalType": "bool",
          "name": "isAvailable",
          "type": "bool"
        }
      ],
      "stateMutability": "view",
      "type": "function"
    },
    {
      "inputs": [
        {
          "internalType": "string",
          "name": "_location",
          "type": "string"
        },
        {
          "internalType": "uint256",
          "name": "_cpu",
          "type": "uint256"
        },
        {
          "internalType": "uint256",
          "name": "_ram",
          "type": "uint256"
        }
      ],
      "name": "registerNode",
      "outputs": [],
      "stateMutability": "nonpayable",
      "type": "function"
    }
  ],
  "bytecode": "0x6080604052348015600f57600080fd5b50610cd48061001f6000396000f3fe608060405234801561001057600080fd5b506004361061004c5760003560e01c8063189a5a1714610051578063208f2a311461008557806353f3b713146100b55780637a868e81146100d3575b600080fd5b61006b6004803603810190610066919061059e565b6100ef565b60405161007c95949392919061069e565b60405180910390f35b61009f600480360381019061009a9190610724565b6101da565b6040516100ac9190610751565b60405180910390f35b6100bd610219565b6040516100ca919061082a565b60405180910390f35b6100ed60048036038101906100e891906108b1565b6102a7565b005b60006020528060005260406000206000915090508060000160009054906101000a900473ffffffffffffffffffffffffffffffffffffffff169080600101805461013890610954565b80601f016020809104026020016040519081016040528092919081815260200182805461016490610954565b80156101b15780601f10610186576101008083540402835291602001916101b1565b820191906000526020600020905b81548152906001019060200180831161019457829003601f168201915b5050505050908060020154908060030154908060040160009054906101000a900460ff16905085565b600181815481106101ea57600080fd5b906000526020600020016000915054906101000a900473ffffffffffffffffffffffffffffffffffffffff1681565b6060600180548060200260200160405190810160405280929190818152602001828054801561029d57602002820191906000526020600020905b8160009054906101000a900473ffffffffffffffffffffffffffffffffffffffff1673ffffffffffffffffffffffffffffffffffffffff1681526020019060010190808311610253575b5050505050905090565b600073ffffffffffffffffffffffffffffffffffffffff166000803373ffffffffffffffffffffffffffffffffffffffff1673ffffffffffffffffffffffffffffffffffffffff16815260200190815260200160002060000160009054906101000a900473ffffffffffffffffffffffffffffffffffffffff1673ffffffffffffffffffffffffffffffffffffffff1614610377576040517f08c379a000000000000000000000000000000000000000000000000000000000815260040161036e906109d1565b60405180910390fd5b6040518060a001604052803373ffffffffffffffffffffffffffffffffffffffff16815260200185858080601f016020809104026020016040519081016040528093929190818152602001838380828437600081840152601f19601f820116905080830192505050505050508152602001838152602001828152602001600115158152506000803373ffffffffffffffffffffffffffffffffffffffff1673ffffffffffffffffffffffffffffffffffffffff16815260200190815260200160002060008201518160000160006101000a81548173ffffffffffffffffffffffffffffffffffffffff021916908373ffffffffffffffffffffffffffffffffffffffff16021790555060208201518160010190816104959190610bcc565b50604082015181600201556060820151816003015560808201518160040160006101000a81548160ff0219169083151502179055509050506001339080600181540180825580915050600190039060005260206000200160009091909190916101000a81548173ffffffffffffffffffffffffffffffffffffffff021916908373ffffffffffffffffffffffffffffffffffffffff16021790555050505050565b600080fd5b600080fd5b600073ffffffffffffffffffffffffffffffffffffffff82169050919050565b600061056b82610540565b9050919050565b61057b81610560565b811461058657600080fd5b50565b60008135905061059881610572565b92915050565b6000602082840312156105b4576105b3610536565b5b60006105c284828501610589565b91505092915050565b6105d481610560565b82525050565b600081519050919050565b600082825260208201905092915050565b60005b838110156106145780820151818401526020810190506105f9565b60008484015250505050565b6000601f19601f8301169050919050565b600061063c826105da565b61064681856105e5565b93506106568185602086016105f6565b61065f81610620565b840191505092915050565b6000819050919050565b61067d8161066a565b82525050565b60008115159050919050565b61069881610683565b82525050565b600060a0820190506106b360008301886105cb565b81810360208301526106c58187610631565b90506106d46040830186610674565b6106e16060830185610674565b6106ee608083018461068f565b9695505050505050565b6107018161066a565b811461070c57600080fd5b50565b60008135905061071e816106f8565b92915050565b60006020828403121561073a57610739610536565b5b60006107488482850161070f565b91505092915050565b600060208201905061076660008301846105cb565b92915050565b600081519050919050565b600082825260208201905092915050565b6000819050602082019050919050565b6107a181610560565b82525050565b60006107b38383610798565b60208301905092915050565b6000602082019050919050565b60006107d78261076c565b6107e18185610777565b93506107ec83610788565b8060005b8381101561081d57815161080488826107a7565b975061080f836107bf565b9250506001810190506107f0565b5085935050505092915050565b6000602082019050818103600083015261084481846107cc565b905092915050565b600080fd5b600080fd5b600080fd5b60008083601f8401126108715761087061084c565b5b8235905067ffffffffffffffff81111561088e5761088d610851565b5b6020830191508360018202830111156108aa576108a9610856565b5b9250929050565b600080600080606085870312156108cb576108ca610536565b5b600085013567ffffffffffffffff8111156108e9576108e861053b565b5b6108f58782880161085b565b945094505060206109088782880161070f565b92505060406109198782880161070f565b91505092959194509250565b7f4e487b7100000000000000000000000000000000000000000000000000000000600052602260045260246000fd5b6000600282049050600182168061096c57607f821691505b60208210810361097f5761097e610925565b5b50919050565b7f4e6f646520616c726561647920726567697374657265642e0000000000000000600082015250565b60006109bb6018836105e5565b91506109c682610985565b602082019050919050565b600060208201905081810360008301526109ea816109ae565b9050919050565b7f4e487b7100000000000000000000000000000000000000000000000000000000600052604160045260246000fd5b60008190508160005260206000209050919050565b60006020601f8301049050919050565b600082821b905092915050565b600060088302610a827fffffffffffffffffffffffffffffffffffffffffffffffffffffffffffffffff82610a45565b610a8c8683610a45565b95508019841693508086168417925050509392505050565b6000819050919050565b6000610ac9610ac4610abf8461066a565b610aa4565b61066a565b9050919050565b6000819050919050565b610ae383610aae565b610af7610aef82610ad0565b848454610a52565b825550505050565b600090565b610b0c610aff565b610b17818484610ada565b505050565b5b81811015610b3b57610b30600082610b04565b600181019050610b1d565b5050565b601f821115610b8057610b5181610a20565b610b5a84610a35565b81016020851015610b69578190505b610b7d610b7585610a35565b830182610b1c565b50505b505050565b600082821c905092915050565b6000610ba360001984600802610b85565b1980831691505092915050565b6000610bbc8383610b92565b9150826002028217905092915050565b610bd5826105da565b67ffffffffffffffff811115610bee57610bed6109f1565b5b610bf88254610954565b610c03828285610b3f565b600060209050601f831160018114610c365760008415610c24578287015190505b610c2e8582610bb0565b865550610c96565b601f198416610c4486610a20565b60005b82811015610c6c57848901518255600182019150602085019450602081019050610c47565b86831015610c895784890151610c85601f891682610b92565b8355505b6001600288020188555050505b50505050505056fea264697066735822122055d63871f63d31460cbf6e56f8fc05fdd47da85ef8c4735b23eabb4634dfd9a464736f6c634300081c0033",
  "linkReferences": {},
  "deployedLinkReferences": {}
}